{"contracts/SwapMultiHop.sol":{"SwapMultiHop":{"abi":[{"inputs":[],"name":"DAI","outputs":[{"internalType":"address","name":"","type":"address"}],"stateMutability":"view","type":"function"},{"inputs":[],"name":"USDC","outputs":[{"internalType":"address","name":"","type":"address"}],"stateMutability":"view","type":"function"},{"inputs":[],"name":"WETH9","outputs":[{"internalType":"address","name":"","type":"address"}],"stateMutability":"view","type":"function"},{"inputs":[{"internalType":"uint256","name":"amountIn","type":"uint256"}],"name":"swapExactInputMultihop","outputs":[{"internalType":"uint256","name":"amountOut","type":"uint256"}],"stateMutability":"nonpayable","type":"function"},{"inputs":[{"internalType":"uint256","name":"amountOut","type":"uint256"},{"internalType":"uint256","name":"amountInMaximum","type":"uint256"}],"name":"swapExactOutputMultihop","outputs":[{"internalType":"uint256","name":"amountIn","type":"uint256"}],"stateMutability":"nonpayable","type":"function"},{"inputs":[],"name":"swapRouter","outputs":[{"internalType":"contract ISwapRouter","name":"","type":"address"}],"stateMutability":"view","type":"function"}],"evm":{"bytecode":{"linkReferences":{},"object":"608060405234801561001057600080fd5b506108c7806100206000396000f3fe608060405234801561001057600080fd5b50600436106100625760003560e01c80633b85cf6a146100675780634aa4a4fc1461009057806389a30271146100a5578063c31c9c07146100ad578063e0bab4c4146100b5578063edd83557146100bd575b600080fd5b61007a61007536600461075b565b6100d0565b6040516100879190610888565b60405180910390f35b6100986102a2565b6040516100879190610861565b6100986102ba565b6100986102d2565b6100986102ea565b61007a6100cb36600461072b565b610302565b60006100f273c02aaa39b223fe8d0a0e5c4f27ead9083c756cc2333085610485565b61012573c02aaa39b223fe8d0a0e5c4f27ead9083c756cc273e592427a0aece92de3edee1f18e0157c05861564846105dd565b6040805160a0810190915260009080610184736b175474e89094c44da98b954eedeac495271d0f606473a0b86991c6218b36c1d19d4a2e9eb0ce3606eb48610bb873c02aaa39b223fe8d0a0e5c4f27ead9083c756cc260c0870161080f565b60408051601f19818403018152918152908252336020830152428282015260608201879052608090910185905251631e51809360e31b815290915073e592427a0aece92de3edee1f18e0157c058615649063f28c0498906101e9908490600401610875565b602060405180830381600087803b15801561020357600080fd5b505af1158015610217573d6000803e3d6000fd5b505050506040513d601f19601f8201168201806040525081019061023b9190610743565b91508282101561029b5761027973c02aaa39b223fe8d0a0e5c4f27ead9083c756cc273e592427a0aece92de3edee1f18e0157c0586156460006105dd565b61029b73c02aaa39b223fe8d0a0e5c4f27ead9083c756cc23033858703610485565b5092915050565b73c02aaa39b223fe8d0a0e5c4f27ead9083c756cc281565b73a0b86991c6218b36c1d19d4a2e9eb0ce3606eb4881565b73e592427a0aece92de3edee1f18e0157c0586156481565b736b175474e89094c44da98b954eedeac495271d0f81565b600061032473c02aaa39b223fe8d0a0e5c4f27ead9083c756cc2333085610485565b61035773c02aaa39b223fe8d0a0e5c4f27ead9083c756cc273e592427a0aece92de3edee1f18e0157c05861564846105dd565b6040805160a08101909152600090806103b673c02aaa39b223fe8d0a0e5c4f27ead9083c756cc2610bb873a0b86991c6218b36c1d19d4a2e9eb0ce3606eb486064736b175474e89094c44da98b954eedeac495271d0f60c0870161080f565b6040516020818303038152906040528152602001336001600160a01b031681526020014281526020018481526020016000815250905073e592427a0aece92de3edee1f18e0157c058615646001600160a01b031663c04b8d59826040518263ffffffff1660e01b815260040161042c9190610875565b602060405180830381600087803b15801561044657600080fd5b505af115801561045a573d6000803e3d6000fd5b505050506040513d601f19601f8201168201806040525081019061047e9190610743565b9392505050565b604080516001600160a01b0385811660248301528481166044830152606480830185905283518084039091018152608490920183526020820180516001600160e01b03166323b872dd60e01b178152925182516000948594938a169392918291908083835b602083106105095780518252601f1990920191602091820191016104ea565b6001836020036101000a0380198251168184511680821785525050505050509050019150506000604051808303816000865af19150503d806000811461056b576040519150601f19603f3d011682016040523d82523d6000602084013e610570565b606091505b509150915081801561059e57508051158061059e575080806020019051602081101561059b57600080fd5b50515b6105d5576040805162461bcd60e51b815260206004820152600360248201526229aa2360e91b604482015290519081900360640190fd5b505050505050565b604080516001600160a01b038481166024830152604480830185905283518084039091018152606490920183526020820180516001600160e01b031663095ea7b360e01b1781529251825160009485949389169392918291908083835b602083106106595780518252601f19909201916020918201910161063a565b6001836020036101000a0380198251168184511680821785525050505050509050019150506000604051808303816000865af19150503d80600081146106bb576040519150601f19603f3d011682016040523d82523d6000602084013e6106c0565b606091505b50915091508180156106ee5750805115806106ee57508080602001905160208110156106eb57600080fd5b50515b610724576040805162461bcd60e51b8152602060048201526002602482015261534160f01b604482015290519081900360640190fd5b5050505050565b60006020828403121561073c578081fd5b5035919050565b600060208284031215610754578081fd5b5051919050565b6000806040838503121561076d578081fd5b50508035926020909101359150565b6001600160a01b03169052565b6000815160a0845280518060a0860152825b818110156107b857602081840181015160c088840101520161079b565b818111156107c9578360c083880101525b50602084015191506107de602086018361077c565b6040848101519086015260608085015190860152608093840151938501939093525050601f01601f19160160c00190565b6bffffffffffffffffffffffff19606096871b811682526001600160e81b031960e896871b8116601484015294871b811660178301529290941b909216602b840152921b909116602e82015260420190565b6001600160a01b0391909116815260200190565b60006020825261047e6020830184610789565b9081526020019056fea264697066735822122009ba874ed0dde7f02cc76520b5382a51f1924daf30eb7c0bb7dc7f9c2c4445d664736f6c63430007060033","opcodes":"PUSH1 0x80 PUSH1 0x40 MSTORE CALLVALUE DUP1 ISZERO PUSH2 0x10 JUMPI PUSH1 0x0 DUP1 REVERT JUMPDEST POP PUSH2 0x8C7 DUP1 PUSH2 0x20 PUSH1 0x0 CODECOPY PUSH1 0x0 RETURN INVALID PUSH1 0x80 PUSH1 0x40 MSTORE CALLVALUE DUP1 ISZERO PUSH2 0x10 JUMPI PUSH1 0x0 DUP1 REVERT JUMPDEST POP PUSH1 0x4 CALLDATASIZE LT PUSH2 0x62 JUMPI PUSH1 0x0 CALLDATALOAD PUSH1 0xE0 SHR DUP1 PUSH4 0x3B85CF6A EQ PUSH2 0x67 JUMPI DUP1 PUSH4 0x4AA4A4FC EQ PUSH2 0x90 JUMPI DUP1 PUSH4 0x89A30271 EQ PUSH2 0xA5 JUMPI DUP1 PUSH4 0xC31C9C07 EQ PUSH2 0xAD JUMPI DUP1 PUSH4 0xE0BAB4C4 EQ PUSH2 0xB5 JUMPI DUP1 PUSH4 0xEDD83557 EQ PUSH2 0xBD JUMPI JUMPDEST PUSH1 0x0 DUP1 REVERT JUMPDEST PUSH2 0x7A PUSH2 0x75 CALLDATASIZE PUSH1 0x4 PUSH2 0x75B JUMP JUMPDEST PUSH2 0xD0 JUMP JUMPDEST PUSH1 0x40 MLOAD PUSH2 0x87 SWAP2 SWAP1 PUSH2 0x888 JUMP JUMPDEST PUSH1 0x40 MLOAD DUP1 SWAP2 SUB SWAP1 RETURN JUMPDEST PUSH2 0x98 PUSH2 0x2A2 JUMP JUMPDEST PUSH1 0x40 MLOAD PUSH2 0x87 SWAP2 SWAP1 PUSH2 0x861 JUMP JUMPDEST PUSH2 0x98 PUSH2 0x2BA JUMP JUMPDEST PUSH2 0x98 PUSH2 0x2D2 JUMP JUMPDEST PUSH2 0x98 PUSH2 0x2EA JUMP JUMPDEST PUSH2 0x7A PUSH2 0xCB CALLDATASIZE PUSH1 0x4 PUSH2 0x72B JUMP JUMPDEST PUSH2 0x302 JUMP JUMPDEST PUSH1 0x0 PUSH2 0xF2 PUSH20 0xC02AAA39B223FE8D0A0E5C4F27EAD9083C756CC2 CALLER ADDRESS DUP6 PUSH2 0x485 JUMP JUMPDEST PUSH2 0x125 PUSH20 0xC02AAA39B223FE8D0A0E5C4F27EAD9083C756CC2 PUSH20 0xE592427A0AECE92DE3EDEE1F18E0157C05861564 DUP5 PUSH2 0x5DD JUMP JUMPDEST PUSH1 0x40 DUP1 MLOAD PUSH1 0xA0 DUP2 ADD SWAP1 SWAP2 MSTORE PUSH1 0x0 SWAP1 DUP1 PUSH2 0x184 PUSH20 0x6B175474E89094C44DA98B954EEDEAC495271D0F PUSH1 0x64 PUSH20 0xA0B86991C6218B36C1D19D4A2E9EB0CE3606EB48 PUSH2 0xBB8 PUSH20 0xC02AAA39B223FE8D0A0E5C4F27EAD9083C756CC2 PUSH1 0xC0 DUP8 ADD PUSH2 0x80F JUMP JUMPDEST PUSH1 0x40 DUP1 MLOAD PUSH1 0x1F NOT DUP2 DUP5 SUB ADD DUP2 MSTORE SWAP2 DUP2 MSTORE SWAP1 DUP3 MSTORE CALLER PUSH1 0x20 DUP4 ADD MSTORE TIMESTAMP DUP3 DUP3 ADD MSTORE PUSH1 0x60 DUP3 ADD DUP8 SWAP1 MSTORE PUSH1 0x80 SWAP1 SWAP2 ADD DUP6 SWAP1 MSTORE MLOAD PUSH4 0x1E518093 PUSH1 0xE3 SHL DUP2 MSTORE SWAP1 SWAP2 POP PUSH20 0xE592427A0AECE92DE3EDEE1F18E0157C05861564 SWAP1 PUSH4 0xF28C0498 SWAP1 PUSH2 0x1E9 SWAP1 DUP5 SWAP1 PUSH1 0x4 ADD PUSH2 0x875 JUMP JUMPDEST PUSH1 0x20 PUSH1 0x40 MLOAD DUP1 DUP4 SUB DUP2 PUSH1 0x0 DUP8 DUP1 EXTCODESIZE ISZERO DUP1 ISZERO PUSH2 0x203 JUMPI PUSH1 0x0 DUP1 REVERT JUMPDEST POP GAS CALL ISZERO DUP1 ISZERO PUSH2 0x217 JUMPI RETURNDATASIZE PUSH1 0x0 DUP1 RETURNDATACOPY RETURNDATASIZE PUSH1 0x0 REVERT JUMPDEST POP POP POP POP PUSH1 0x40 MLOAD RETURNDATASIZE PUSH1 0x1F NOT PUSH1 0x1F DUP3 ADD AND DUP3 ADD DUP1 PUSH1 0x40 MSTORE POP DUP2 ADD SWAP1 PUSH2 0x23B SWAP2 SWAP1 PUSH2 0x743 JUMP JUMPDEST SWAP2 POP DUP3 DUP3 LT ISZERO PUSH2 0x29B JUMPI PUSH2 0x279 PUSH20 0xC02AAA39B223FE8D0A0E5C4F27EAD9083C756CC2 PUSH20 0xE592427A0AECE92DE3EDEE1F18E0157C05861564 PUSH1 0x0 PUSH2 0x5DD JUMP JUMPDEST PUSH2 0x29B PUSH20 0xC02AAA39B223FE8D0A0E5C4F27EAD9083C756CC2 ADDRESS CALLER DUP6 DUP8 SUB PUSH2 0x485 JUMP JUMPDEST POP SWAP3 SWAP2 POP POP JUMP JUMPDEST PUSH20 0xC02AAA39B223FE8D0A0E5C4F27EAD9083C756CC2 DUP2 JUMP JUMPDEST PUSH20 0xA0B86991C6218B36C1D19D4A2E9EB0CE3606EB48 DUP2 JUMP JUMPDEST PUSH20 0xE592427A0AECE92DE3EDEE1F18E0157C05861564 DUP2 JUMP JUMPDEST PUSH20 0x6B175474E89094C44DA98B954EEDEAC495271D0F DUP2 JUMP JUMPDEST PUSH1 0x0 PUSH2 0x324 PUSH20 0xC02AAA39B223FE8D0A0E5C4F27EAD9083C756CC2 CALLER ADDRESS DUP6 PUSH2 0x485 JUMP JUMPDEST PUSH2 0x357 PUSH20 0xC02AAA39B223FE8D0A0E5C4F27EAD9083C756CC2 PUSH20 0xE592427A0AECE92DE3EDEE1F18E0157C05861564 DUP5 PUSH2 0x5DD JUMP JUMPDEST PUSH1 0x40 DUP1 MLOAD PUSH1 0xA0 DUP2 ADD SWAP1 SWAP2 MSTORE PUSH1 0x0 SWAP1 DUP1 PUSH2 0x3B6 PUSH20 0xC02AAA39B223FE8D0A0E5C4F27EAD9083C756CC2 PUSH2 0xBB8 PUSH20 0xA0B86991C6218B36C1D19D4A2E9EB0CE3606EB48 PUSH1 0x64 PUSH20 0x6B175474E89094C44DA98B954EEDEAC495271D0F PUSH1 0xC0 DUP8 ADD PUSH2 0x80F JUMP JUMPDEST PUSH1 0x40 MLOAD PUSH1 0x20 DUP2 DUP4 SUB SUB DUP2 MSTORE SWAP1 PUSH1 0x40 MSTORE DUP2 MSTORE PUSH1 0x20 ADD CALLER PUSH1 0x1 PUSH1 0x1 PUSH1 0xA0 SHL SUB AND DUP2 MSTORE PUSH1 0x20 ADD TIMESTAMP DUP2 MSTORE PUSH1 0x20 ADD DUP5 DUP2 MSTORE PUSH1 0x20 ADD PUSH1 0x0 DUP2 MSTORE POP SWAP1 POP PUSH20 0xE592427A0AECE92DE3EDEE1F18E0157C05861564 PUSH1 0x1 PUSH1 0x1 PUSH1 0xA0 SHL SUB AND PUSH4 0xC04B8D59 DUP3 PUSH1 0x40 MLOAD DUP3 PUSH4 0xFFFFFFFF AND PUSH1 0xE0 SHL DUP2 MSTORE PUSH1 0x4 ADD PUSH2 0x42C SWAP2 SWAP1 PUSH2 0x875 JUMP JUMPDEST PUSH1 0x20 PUSH1 0x40 MLOAD DUP1 DUP4 SUB DUP2 PUSH1 0x0 DUP8 DUP1 EXTCODESIZE ISZERO DUP1 ISZERO PUSH2 0x446 JUMPI PUSH1 0x0 DUP1 REVERT JUMPDEST POP GAS CALL ISZERO DUP1 ISZERO PUSH2 0x45A JUMPI RETURNDATASIZE PUSH1 0x0 DUP1 RETURNDATACOPY RETURNDATASIZE PUSH1 0x0 REVERT JUMPDEST POP POP POP POP PUSH1 0x40 MLOAD RETURNDATASIZE PUSH1 0x1F NOT PUSH1 0x1F DUP3 ADD AND DUP3 ADD DUP1 PUSH1 0x40 MSTORE POP DUP2 ADD SWAP1 PUSH2 0x47E SWAP2 SWAP1 PUSH2 0x743 JUMP JUMPDEST SWAP4 SWAP3 POP POP POP JUMP JUMPDEST PUSH1 0x40 DUP1 MLOAD PUSH1 0x1 PUSH1 0x1 PUSH1 0xA0 SHL SUB DUP6 DUP2 AND PUSH1 0x24 DUP4 ADD MSTORE DUP5 DUP2 AND PUSH1 0x44 DUP4 ADD MSTORE PUSH1 0x64 DUP1 DUP4 ADD DUP6 SWAP1 MSTORE DUP4 MLOAD DUP1 DUP5 SUB SWAP1 SWAP2 ADD DUP2 MSTORE PUSH1 0x84 SWAP1 SWAP3 ADD DUP4 MSTORE PUSH1 0x20 DUP3 ADD DUP1 MLOAD PUSH1 0x1 PUSH1 0x1 PUSH1 0xE0 SHL SUB AND PUSH4 0x23B872DD PUSH1 0xE0 SHL OR DUP2 MSTORE SWAP3 MLOAD DUP3 MLOAD PUSH1 0x0 SWAP5 DUP6 SWAP5 SWAP4 DUP11 AND SWAP4 SWAP3 SWAP2 DUP3 SWAP2 SWAP1 DUP1 DUP4 DUP4 JUMPDEST PUSH1 0x20 DUP4 LT PUSH2 0x509 JUMPI DUP1 MLOAD DUP3 MSTORE PUSH1 0x1F NOT SWAP1 SWAP3 ADD SWAP2 PUSH1 0x20 SWAP2 DUP3 ADD SWAP2 ADD PUSH2 0x4EA JUMP JUMPDEST PUSH1 0x1 DUP4 PUSH1 0x20 SUB PUSH2 0x100 EXP SUB DUP1 NOT DUP3 MLOAD AND DUP2 DUP5 MLOAD AND DUP1 DUP3 OR DUP6 MSTORE POP POP POP POP POP POP SWAP1 POP ADD SWAP2 POP POP PUSH1 0x0 PUSH1 0x40 MLOAD DUP1 DUP4 SUB DUP2 PUSH1 0x0 DUP7 GAS CALL SWAP2 POP POP RETURNDATASIZE DUP1 PUSH1 0x0 DUP2 EQ PUSH2 0x56B JUMPI PUSH1 0x40 MLOAD SWAP2 POP PUSH1 0x1F NOT PUSH1 0x3F RETURNDATASIZE ADD AND DUP3 ADD PUSH1 0x40 MSTORE RETURNDATASIZE DUP3 MSTORE RETURNDATASIZE PUSH1 0x0 PUSH1 0x20 DUP5 ADD RETURNDATACOPY PUSH2 0x570 JUMP JUMPDEST PUSH1 0x60 SWAP2 POP JUMPDEST POP SWAP2 POP SWAP2 POP DUP2 DUP1 ISZERO PUSH2 0x59E JUMPI POP DUP1 MLOAD ISZERO DUP1 PUSH2 0x59E JUMPI POP DUP1 DUP1 PUSH1 0x20 ADD SWAP1 MLOAD PUSH1 0x20 DUP2 LT ISZERO PUSH2 0x59B JUMPI PUSH1 0x0 DUP1 REVERT JUMPDEST POP MLOAD JUMPDEST PUSH2 0x5D5 JUMPI PUSH1 0x40 DUP1 MLOAD PUSH3 0x461BCD PUSH1 0xE5 SHL DUP2 MSTORE PUSH1 0x20 PUSH1 0x4 DUP3 ADD MSTORE PUSH1 0x3 PUSH1 0x24 DUP3 ADD MSTORE PUSH3 0x29AA23 PUSH1 0xE9 SHL PUSH1 0x44 DUP3 ADD MSTORE SWAP1 MLOAD SWAP1 DUP2 SWAP1 SUB PUSH1 0x64 ADD SWAP1 REVERT JUMPDEST POP POP POP POP POP POP JUMP JUMPDEST PUSH1 0x40 DUP1 MLOAD PUSH1 0x1 PUSH1 0x1 PUSH1 0xA0 SHL SUB DUP5 DUP2 AND PUSH1 0x24 DUP4 ADD MSTORE PUSH1 0x44 DUP1 DUP4 ADD DUP6 SWAP1 MSTORE DUP4 MLOAD DUP1 DUP5 SUB SWAP1 SWAP2 ADD DUP2 MSTORE PUSH1 0x64 SWAP1 SWAP3 ADD DUP4 MSTORE PUSH1 0x20 DUP3 ADD DUP1 MLOAD PUSH1 0x1 PUSH1 0x1 PUSH1 0xE0 SHL SUB AND PUSH4 0x95EA7B3 PUSH1 0xE0 SHL OR DUP2 MSTORE SWAP3 MLOAD DUP3 MLOAD PUSH1 0x0 SWAP5 DUP6 SWAP5 SWAP4 DUP10 AND SWAP4 SWAP3 SWAP2 DUP3 SWAP2 SWAP1 DUP1 DUP4 DUP4 JUMPDEST PUSH1 0x20 DUP4 LT PUSH2 0x659 JUMPI DUP1 MLOAD DUP3 MSTORE PUSH1 0x1F NOT SWAP1 SWAP3 ADD SWAP2 PUSH1 0x20 SWAP2 DUP3 ADD SWAP2 ADD PUSH2 0x63A JUMP JUMPDEST PUSH1 0x1 DUP4 PUSH1 0x20 SUB PUSH2 0x100 EXP SUB DUP1 NOT DUP3 MLOAD AND DUP2 DUP5 MLOAD AND DUP1 DUP3 OR DUP6 MSTORE POP POP POP POP POP POP SWAP1 POP ADD SWAP2 POP POP PUSH1 0x0 PUSH1 0x40 MLOAD DUP1 DUP4 SUB DUP2 PUSH1 0x0 DUP7 GAS CALL SWAP2 POP POP RETURNDATASIZE DUP1 PUSH1 0x0 DUP2 EQ PUSH2 0x6BB JUMPI PUSH1 0x40 MLOAD SWAP2 POP PUSH1 0x1F NOT PUSH1 0x3F RETURNDATASIZE ADD AND DUP3 ADD PUSH1 0x40 MSTORE RETURNDATASIZE DUP3 MSTORE RETURNDATASIZE PUSH1 0x0 PUSH1 0x20 DUP5 ADD RETURNDATACOPY PUSH2 0x6C0 JUMP JUMPDEST PUSH1 0x60 SWAP2 POP JUMPDEST POP SWAP2 POP SWAP2 POP DUP2 DUP1 ISZERO PUSH2 0x6EE JUMPI POP DUP1 MLOAD ISZERO DUP1 PUSH2 0x6EE JUMPI POP DUP1 DUP1 PUSH1 0x20 ADD SWAP1 MLOAD PUSH1 0x20 DUP2 LT ISZERO PUSH2 0x6EB JUMPI PUSH1 0x0 DUP1 REVERT JUMPDEST POP MLOAD JUMPDEST PUSH2 0x724 JUMPI PUSH1 0x40 DUP1 MLOAD PUSH3 0x461BCD PUSH1 0xE5 SHL DUP2 MSTORE PUSH1 0x20 PUSH1 0x4 DUP3 ADD MSTORE PUSH1 0x2 PUSH1 0x24 DUP3 ADD MSTORE PUSH2 0x5341 PUSH1 0xF0 SHL PUSH1 0x44 DUP3 ADD MSTORE SWAP1 MLOAD SWAP1 DUP2 SWAP1 SUB PUSH1 0x64 ADD SWAP1 REVERT JUMPDEST POP POP POP POP POP JUMP JUMPDEST PUSH1 0x0 PUSH1 0x20 DUP3 DUP5 SUB SLT ISZERO PUSH2 0x73C JUMPI DUP1 DUP2 REVERT JUMPDEST POP CALLDATALOAD SWAP2 SWAP1 POP JUMP JUMPDEST PUSH1 0x0 PUSH1 0x20 DUP3 DUP5 SUB SLT ISZERO PUSH2 0x754 JUMPI DUP1 DUP2 REVERT JUMPDEST POP MLOAD SWAP2 SWAP1 POP JUMP JUMPDEST PUSH1 0x0 DUP1 PUSH1 0x40 DUP4 DUP6 SUB SLT ISZERO PUSH2 0x76D JUMPI DUP1 DUP2 REVERT JUMPDEST POP POP DUP1 CALLDATALOAD SWAP3 PUSH1 0x20 SWAP1 SWAP2 ADD CALLDATALOAD SWAP2 POP JUMP JUMPDEST PUSH1 0x1 PUSH1 0x1 PUSH1 0xA0 SHL SUB AND SWAP1 MSTORE JUMP JUMPDEST PUSH1 0x0 DUP2 MLOAD PUSH1 0xA0 DUP5 MSTORE DUP1 MLOAD DUP1 PUSH1 0xA0 DUP7 ADD MSTORE DUP3 JUMPDEST DUP2 DUP2 LT ISZERO PUSH2 0x7B8 JUMPI PUSH1 0x20 DUP2 DUP5 ADD DUP2 ADD MLOAD PUSH1 0xC0 DUP9 DUP5 ADD ADD MSTORE ADD PUSH2 0x79B JUMP JUMPDEST DUP2 DUP2 GT ISZERO PUSH2 0x7C9 JUMPI DUP4 PUSH1 0xC0 DUP4 DUP9 ADD ADD MSTORE JUMPDEST POP PUSH1 0x20 DUP5 ADD MLOAD SWAP2 POP PUSH2 0x7DE PUSH1 0x20 DUP7 ADD DUP4 PUSH2 0x77C JUMP JUMPDEST PUSH1 0x40 DUP5 DUP2 ADD MLOAD SWAP1 DUP7 ADD MSTORE PUSH1 0x60 DUP1 DUP6 ADD MLOAD SWAP1 DUP7 ADD MSTORE PUSH1 0x80 SWAP4 DUP5 ADD MLOAD SWAP4 DUP6 ADD SWAP4 SWAP1 SWAP4 MSTORE POP POP PUSH1 0x1F ADD PUSH1 0x1F NOT AND ADD PUSH1 0xC0 ADD SWAP1 JUMP JUMPDEST PUSH12 0xFFFFFFFFFFFFFFFFFFFFFFFF NOT PUSH1 0x60 SWAP7 DUP8 SHL DUP2 AND DUP3 MSTORE PUSH1 0x1 PUSH1 0x1 PUSH1 0xE8 SHL SUB NOT PUSH1 0xE8 SWAP7 DUP8 SHL DUP2 AND PUSH1 0x14 DUP5 ADD MSTORE SWAP5 DUP8 SHL DUP2 AND PUSH1 0x17 DUP4 ADD MSTORE SWAP3 SWAP1 SWAP5 SHL SWAP1 SWAP3 AND PUSH1 0x2B DUP5 ADD MSTORE SWAP3 SHL SWAP1 SWAP2 AND PUSH1 0x2E DUP3 ADD MSTORE PUSH1 0x42 ADD SWAP1 JUMP JUMPDEST PUSH1 0x1 PUSH1 0x1 PUSH1 0xA0 SHL SUB SWAP2 SWAP1 SWAP2 AND DUP2 MSTORE PUSH1 0x20 ADD SWAP1 JUMP JUMPDEST PUSH1 0x0 PUSH1 0x20 DUP3 MSTORE PUSH2 0x47E PUSH1 0x20 DUP4 ADD DUP5 PUSH2 0x789 JUMP JUMPDEST SWAP1 DUP2 MSTORE PUSH1 0x20 ADD SWAP1 JUMP INVALID LOG2 PUSH5 0x6970667358 0x22 SLT KECCAK256 MULMOD 0xBA DUP8 0x4E 0xD0 0xDD 0xE7 CREATE 0x2C 0xC7 PUSH6 0x20B5382A51F1 SWAP3 0x4D 0xAF ADDRESS 0xEB PUSH29 0xBB7DC7F9C2C4445D664736F6C63430007060033000000000000000000 "},"methodIdentifiers":{"DAI()":"e0bab4c4","USDC()":"89a30271","WETH9()":"4aa4a4fc","swapExactInputMultihop(uint256)":"edd83557","swapExactOutputMultihop(uint256,uint256)":"3b85cf6a","swapRouter()":"c31c9c07"}}}}}