{
  "_format": "hh-sol-artifact-1",
  "contractName": "LiquidityExamples",
  "sourceName": "contracts/Liquidity.sol",
  "abi": [
    {
      "inputs": [],
      "name": "DAI",
      "outputs": [
        {
          "internalType": "address",
          "name": "",
          "type": "address"
        }
      ],
      "stateMutability": "view",
      "type": "function"
    },
    {
      "inputs": [],
      "name": "USDC",
      "outputs": [
        {
          "internalType": "address",
          "name": "",
          "type": "address"
        }
      ],
      "stateMutability": "view",
      "type": "function"
    },
    {
      "inputs": [],
      "name": "collectAllFees",
      "outputs": [
        {
          "internalType": "uint256",
          "name": "amount0",
          "type": "uint256"
        },
        {
          "internalType": "uint256",
          "name": "amount1",
          "type": "uint256"
        }
      ],
      "stateMutability": "nonpayable",
      "type": "function"
    },
    {
      "inputs": [
        {
          "internalType": "uint128",
          "name": "liquidity",
          "type": "uint128"
        }
      ],
      "name": "decreaseLiquidity",
      "outputs": [
        {
          "internalType": "uint256",
          "name": "amount0",
          "type": "uint256"
        },
        {
          "internalType": "uint256",
          "name": "amount1",
          "type": "uint256"
        }
      ],
      "stateMutability": "nonpayable",
      "type": "function"
    },
    {
      "inputs": [
        {
          "internalType": "uint256",
          "name": "",
          "type": "uint256"
        }
      ],
      "name": "deposits",
      "outputs": [
        {
          "internalType": "address",
          "name": "owner",
          "type": "address"
        },
        {
          "internalType": "uint128",
          "name": "liquidity",
          "type": "uint128"
        },
        {
          "internalType": "address",
          "name": "token0",
          "type": "address"
        },
        {
          "internalType": "address",
          "name": "token1",
          "type": "address"
        }
      ],
      "stateMutability": "view",
      "type": "function"
    },
    {
      "inputs": [
        {
          "internalType": "uint256",
          "name": "_tokenId",
          "type": "uint256"
        }
      ],
      "name": "getLiquidity",
      "outputs": [
        {
          "internalType": "uint128",
          "name": "",
          "type": "uint128"
        }
      ],
      "stateMutability": "view",
      "type": "function"
    },
    {
      "inputs": [
        {
          "internalType": "uint256",
          "name": "amountAdd0",
          "type": "uint256"
        },
        {
          "internalType": "uint256",
          "name": "amountAdd1",
          "type": "uint256"
        }
      ],
      "name": "increaseLiquidityCurrentRange",
      "outputs": [
        {
          "internalType": "uint128",
          "name": "liquidity",
          "type": "uint128"
        },
        {
          "internalType": "uint256",
          "name": "amount0",
          "type": "uint256"
        },
        {
          "internalType": "uint256",
          "name": "amount1",
          "type": "uint256"
        }
      ],
      "stateMutability": "nonpayable",
      "type": "function"
    },
    {
      "inputs": [],
      "name": "mintNewPosition",
      "outputs": [
        {
          "internalType": "uint256",
          "name": "_tokenId",
          "type": "uint256"
        },
        {
          "internalType": "uint128",
          "name": "liquidity",
          "type": "uint128"
        },
        {
          "internalType": "uint256",
          "name": "amount0",
          "type": "uint256"
        },
        {
          "internalType": "uint256",
          "name": "amount1",
          "type": "uint256"
        }
      ],
      "stateMutability": "nonpayable",
      "type": "function"
    },
    {
      "inputs": [],
      "name": "nonfungiblePositionManager",
      "outputs": [
        {
          "internalType": "contract INonfungiblePositionManager",
          "name": "",
          "type": "address"
        }
      ],
      "stateMutability": "view",
      "type": "function"
    },
    {
      "inputs": [
        {
          "internalType": "address",
          "name": "operator",
          "type": "address"
        },
        {
          "internalType": "address",
          "name": "",
          "type": "address"
        },
        {
          "internalType": "uint256",
          "name": "_tokenId",
          "type": "uint256"
        },
        {
          "internalType": "bytes",
          "name": "",
          "type": "bytes"
        }
      ],
      "name": "onERC721Received",
      "outputs": [
        {
          "internalType": "bytes4",
          "name": "",
          "type": "bytes4"
        }
      ],
      "stateMutability": "nonpayable",
      "type": "function"
    },
    {
      "inputs": [],
      "name": "poolFee",
      "outputs": [
        {
          "internalType": "uint24",
          "name": "",
          "type": "uint24"
        }
      ],
      "stateMutability": "view",
      "type": "function"
    },
    {
      "inputs": [],
      "name": "tokenId",
      "outputs": [
        {
          "internalType": "uint256",
          "name": "",
          "type": "uint256"
        }
      ],
      "stateMutability": "view",
      "type": "function"
    }
  ],
  "bytecode": "0x6080604052600080546001600160a01b03191673c36442b4a4522e871399cd717abdd847ab11fe8817905534801561003657600080fd5b5061159c806100466000396000f3fe608060405234801561001057600080fd5b50600436106100b45760003560e01c806389a302711161007157806389a302711461015c578063951583c314610171578063b02c43d014610191578063b44a2722146101b4578063da406491146101bc578063e0bab4c4146101cf576100b4565b8063089fe6aa146100b9578063150b7a02146100d757806317d70f7c146100f7578063306d9c611461010c578063558954c914610124578063686f2c9014610146575b600080fd5b6100c16101d7565b6040516100ce91906114ee565b60405180910390f35b6100ea6100e536600461105c565b6101dc565b6040516100ce919061132c565b6100ff6101fa565b6040516100ce91906114fe565b610114610200565b6040516100ce9493929190611507565b6101376101323660046111a4565b610440565b6040516100ce939291906114cd565b61014e610625565b6040516100ce92919061152b565b61016461072a565b6040516100ce91906112e4565b61018461017f36600461114f565b610742565b6040516100ce91906114b9565b6101a461019f36600461114f565b6107d9565b6040516100ce94939291906112f8565b61016461081a565b61014e6101ca3660046110f6565b610829565b61016461093e565b606481565b60006101e88685610956565b50630a85bd0160e11b95945050505050565b60025481565b6000805481908190819068056bc75e2d63100000906305f5e1009061024490736b175474e89094c44da98b954eedeac495271d0f906001600160a01b031684610b61565b6000546102709073a0b86991c6218b36c1d19d4a2e9eb0ce3606eb48906001600160a01b031683610b61565b6040805161016081018252736b175474e89094c44da98b954eedeac495271d0f815273a0b86991c6218b36c1d19d4a2e9eb0ce3606eb486020820152606481830152620d89e7196060820152620d89e8608082015260a0810184905260c08101839052600060e0820181905261010082018190523061012083015242610140830152549151634418b22b60e11b815290916001600160a01b03169063883164569061031f90849060040161140b565b608060405180830381600087803b15801561033957600080fd5b505af115801561034d573d6000803e3d6000fd5b505050506040513d601f19601f820116820180604052508101906103719190611167565b929950909750955093506103853388610956565b828510156103de57600080546103ba91736b175474e89094c44da98b954eedeac495271d0f916001600160a01b031690610b61565b8483036103dc736b175474e89094c44da98b954eedeac495271d0f3383610caf565b505b8184101561043757600080546104139173a0b86991c6218b36c1d19d4a2e9eb0ce3606eb48916001600160a01b031690610b61565b83820361043573a0b86991c6218b36c1d19d4a2e9eb0ce3606eb483383610caf565b505b50505090919293565b6000806000610465736b175474e89094c44da98b954eedeac495271d0f333088610df6565b61048573a0b86991c6218b36c1d19d4a2e9eb0ce3606eb48333087610df6565b6000546104b190736b175474e89094c44da98b954eedeac495271d0f906001600160a01b031687610b61565b6000546104dd9073a0b86991c6218b36c1d19d4a2e9eb0ce3606eb48906001600160a01b031686610b61565b6040805160c081018252600254815260208101879052808201869052600060608201819052608082018190524260a083015254915163219f5d1760e01b815290916001600160a01b03169063219f5d179061053c9084906004016113c7565b606060405180830381600087803b15801561055657600080fd5b505af115801561056a573d6000803e3d6000fd5b505050506040513d601f19601f8201168201806040525081019061058e9190611119565b6040805180820190915260098152684c697175696469747960b81b602082015292965090945092506105c9906001600160801b038616610f4e565b6105f3604051806040016040528060088152602001670616d6f756e7420360c41b81525084610f4e565b61061d60405180604001604052806008815260200167616d6f756e74203160c01b81525083610f4e565b509250925092565b6040805160808101825260025481523060208201526001600160801b03818301819052606082015260008054925163fc6f786560e01b815290928392916001600160a01b039091169063fc6f786590610682908490600401611341565b6040805180830381600087803b15801561069b57600080fd5b505af11580156106af573d6000803e3d6000fd5b505050506040513d601f19601f820116820180604052508101906106d391906111c5565b604080518082019091526005815264066656520360dc1b602082015291945092506106fe9084610f4e565b61072560405180604001604052806005815260200164666565203160d81b81525083610f4e565b509091565b73a0b86991c6218b36c1d19d4a2e9eb0ce3606eb4881565b6000805460405163133f757160e31b815282916001600160a01b0316906399fbab88906107739086906004016114fe565b6101806040518083038186803b15801561078c57600080fd5b505afa1580156107a0573d6000803e3d6000fd5b505050506040513d601f19601f820116820180604052508101906107c491906111e8565b50929b5050505050505050505050505b919050565b600160208190526000918252604090912080549181015460028201546003909201546001600160a01b03938416936001600160801b03909216928216911684565b6000546001600160a01b031681565b6040805160a08101825260025481526001600160801b038316602082015260008183018190526060820181905242608083015280549251630624e65f60e11b815290928392916001600160a01b0390911690630c49ccbe9061088f908490600401611384565b6040805180830381600087803b1580156108a857600080fd5b505af11580156108bc573d6000803e3d6000fd5b505050506040513d601f19601f820116820180604052508101906108e091906111c5565b6040805180820190915260088152670616d6f756e7420360c41b6020820152919450925061090e9084610f4e565b61093860405180604001604052806008815260200167616d6f756e74203160c01b81525083610f4e565b50915091565b736b175474e89094c44da98b954eedeac495271d0f81565b6000805460405163133f757160e31b8152829182916001600160a01b03909116906399fbab889061098b9087906004016114fe565b6101806040518083038186803b1580156109a457600080fd5b505afa1580156109b8573d6000803e3d6000fd5b505050506040513d601f19601f820116820180604052508101906109dc91906111e8565b5050505097505050509450945050506040518060800160405280866001600160a01b03168152602001826001600160801b03168152602001846001600160a01b03168152602001836001600160a01b03168152506001600086815260200190815260200160002060008201518160000160006101000a8154816001600160a01b0302191690836001600160a01b0316021790555060208201518160010160006101000a8154816001600160801b0302191690836001600160801b0316021790555060408201518160020160006101000a8154816001600160a01b0302191690836001600160a01b0316021790555060608201518160030160006101000a8154816001600160a01b0302191690836001600160a01b03160217905550905050610b2460405180604001604052806008815260200167151bdad95b881a5960c21b81525085610f4e565b610b58604051806040016040528060098152602001684c697175696469747960b81b815250826001600160801b0316610f4e565b50505060025550565b604080516001600160a01b038481166024830152604480830185905283518084039091018152606490920183526020820180516001600160e01b031663095ea7b360e01b1781529251825160009485949389169392918291908083835b60208310610bdd5780518252601f199092019160209182019101610bbe565b6001836020036101000a0380198251168184511680821785525050505050509050019150506000604051808303816000865af19150503d8060008114610c3f576040519150601f19603f3d011682016040523d82523d6000602084013e610c44565b606091505b5091509150818015610c72575080511580610c725750808060200190516020811015610c6f57600080fd5b50515b610ca8576040805162461bcd60e51b8152602060048201526002602482015261534160f01b604482015290519081900360640190fd5b5050505050565b604080516001600160a01b038481166024830152604480830185905283518084039091018152606490920183526020820180516001600160e01b031663a9059cbb60e01b1781529251825160009485949389169392918291908083835b60208310610d2b5780518252601f199092019160209182019101610d0c565b6001836020036101000a0380198251168184511680821785525050505050509050019150506000604051808303816000865af19150503d8060008114610d8d576040519150601f19603f3d011682016040523d82523d6000602084013e610d92565b606091505b5091509150818015610dc0575080511580610dc05750808060200190516020811015610dbd57600080fd5b50515b610ca8576040805162461bcd60e51b815260206004820152600260248201526114d560f21b604482015290519081900360640190fd5b604080516001600160a01b0385811660248301528481166044830152606480830185905283518084039091018152608490920183526020820180516001600160e01b03166323b872dd60e01b178152925182516000948594938a169392918291908083835b60208310610e7a5780518252601f199092019160209182019101610e5b565b6001836020036101000a0380198251168184511680821785525050505050509050019150506000604051808303816000865af19150503d8060008114610edc576040519150601f19603f3d011682016040523d82523d6000602084013e610ee1565b606091505b5091509150818015610f0f575080511580610f0f5750808060200190516020811015610f0c57600080fd5b50515b610f46576040805162461bcd60e51b815260206004820152600360248201526229aa2360e91b604482015290519081900360640190fd5b505050505050565b610ffc82826040516024018080602001838152602001828103825284818151815260200191508051906020019080838360005b83811015610f99578181015183820152602001610f81565b50505050905090810190601f168015610fc65780820380516001836020036101000a031916815260200191505b5060408051601f198184030181529190526020810180516001600160e01b0316632d839cb360e21b179052935061100092505050565b5050565b80516a636f6e736f6c652e6c6f67602083016000808483855afa5050505050565b80516107d481611539565b8051600281900b81146107d457600080fd5b80516107d481611551565b805162ffffff811681146107d457600080fd5b600080600080600060808688031215611073578081fd5b853561107e81611539565b9450602086013561108e81611539565b935060408601359250606086013567ffffffffffffffff808211156110b1578283fd5b818801915088601f8301126110c4578283fd5b8135818111156110d2578384fd5b8960208285010111156110e3578384fd5b9699959850939650602001949392505050565b600060208284031215611107578081fd5b813561111281611551565b9392505050565b60008060006060848603121561112d578283fd5b835161113881611551565b602085015160409095015190969495509392505050565b600060208284031215611160578081fd5b5035919050565b6000806000806080858703121561117c578384fd5b84519350602085015161118e81611551565b6040860151606090960151949790965092505050565b600080604083850312156111b6578182fd5b50508035926020909101359150565b600080604083850312156111d7578182fd5b505080516020909101519092909150565b6000806000806000806000806000806000806101808d8f03121561120a578687fd5b8c516bffffffffffffffffffffffff81168114611225578788fd5b9b5061123360208e01611021565b9a5061124160408e01611021565b995061124f60608e01611021565b985061125d60808e01611049565b975061126b60a08e0161102c565b965061127960c08e0161102c565b955061128760e08e0161103e565b94506101008d015193506101208d015192506112a66101408e0161103e565b91506112b56101608e0161103e565b90509295989b509295989b509295989b565b6001600160a01b03169052565b60020b9052565b62ffffff169052565b6001600160a01b0391909116815260200190565b6001600160a01b0394851681526001600160801b039390931660208401529083166040830152909116606082015260800190565b6001600160e01b031991909116815260200190565b815181526020808301516001600160a01b0316908201526040808301516001600160801b0390811691830191909152606092830151169181019190915260800190565b600060a082019050825182526001600160801b03602084015116602083015260408301516040830152606083015160608301526080830151608083015292915050565b600060c082019050825182526020830151602083015260408301516040830152606083015160608301526080830151608083015260a083015160a083015292915050565b60006101608201905061141f8284516112c7565b602083015161143160208401826112c7565b50604083015161144460408401826112db565b50606083015161145760608401826112d4565b50608083015161146a60808401826112d4565b5060a083015160a083015260c083015160c083015260e083015160e0830152610100808401518184015250610120808401516114a8828501826112c7565b505061014092830151919092015290565b6001600160801b0391909116815260200190565b6001600160801b039390931683526020830191909152604082015260600190565b62ffffff91909116815260200190565b90815260200190565b9384526001600160801b039290921660208401526040830152606082015260800190565b918252602082015260400190565b6001600160a01b038116811461154e57600080fd5b50565b6001600160801b038116811461154e57600080fdfea2646970667358221220646daf0cb76fadd38940dc4e4f07cc682cc60dd5e195a247bdc37ee6b315dc9c64736f6c63430007060033",
  "linkReferences": {},
  "deployedLinkReferences": {}
}